:020000040800F2
:100000008019002039020008714900086D49000874
:100010006F490008991A00080D4A00080000000006
:10002000000000000000000000000000754900080A
:100030009B1A000800000000734900087749000877
:10004000530200085302000853020008530200083C
:10005000530200085302000853020008530200082C
:10006000530200085302000853020008530200081C
:10007000530200085302000853020008530200080C
:1000800053020008530200085302000853020008FC
:1000900053020008530200085302000853020008EC
:1000A00053020008530200085302000853020008DC
:1000B000530200087D49000853020008530200085B
:1000C00053020008530200085302000853020008BC
:1000D0005302000853020008014A000853020008B6
:1000E00053020008530200085302000800F002F80F
:1000F00000F092F80AA090E8000C82448344AAF130
:100100000107DA4501D100F087F8AFF2090EBAE82D
:100110000F0013F0010F18BFFB1A43F0010318473B
:10012000E871000008720000103A24BF78C878C156
:10013000FAD8520724BF30C830C144BF04680C60ED
:10014000704700000023002400250026103A28BF35
:1001500078C1FBD8520728BF30C148BF0B60704739
:100160006E2900F06983702900F05F81662906F02E
:100170009687652906F09387672906F0908761299D
:10018000AFF3008003681B0A28BF41F08001692992
:1001900000F01683642900F01383752900F01083A2
:1001A0006F2900F05E86782900F02B81E92900F0A4
:1001B000F985E42900F0F685F52900F0F385EF29AB
:1001C00000F05B86F82900F02A810368DB0928BF6C
:1001D00041F08001632900F07A85732900F07F8562
:1001E000E32900F0E986F32900F0EE86002070474D
:1001F0001FB500F04DFE04000020002106F05AFC5F
:10020000401C60600020002106F06AFCE06000F005
:1002100051FA1FBD10B510BD00F070FF1146FFF779
:10022000E7FF06F03EFC00F08EFF03B4FFF7F2FF9D
:1002300003BC00F0D3FF000009488047094800478D
:10024000FEE7FEE7FEE7FEE7FEE7FEE7FEE7FEE786
:10025000FEE7FEE704480549054A064B70470000E3
:100260007B490008ED000008800300208019002071
:100270008005002080050020B2F120030AD5C2F1DC
:10028000200320FA02F001FA03F321FA02F140EA16
:100290000300704721FA03F04FF00001704710B5DA
:1002A000044600F019FA0068005D000704D5DF2C51
:1002B00002D0A4F1200010BD204610BD1CB50C4694
:1002C000064B7B4469460090204600F0DEFC044665
:1002D0000020694600F0ECFC20461CBDEB09000044
:1002E0000FB41CB5084B06AA7B44694600900598DC
:1002F00000F0CBFC04460020694600F0D9FC204603
:100300001CBC5DF814FB0000C509000070B5044674
:1003100085690068C10601D5302600E02026C007A7
:1003200007D070BDD4E9012130469047206A401CB7
:1003300020626D1EF6D570BD70B5044685690078E3
:10034000C00707D170BDD4E9012120209047206A61
:10035000401C20626D1EF6D570BD70B50C4605467A
:10036000012A05D02878800600D5EA69002302E03A
:10037000012305E05B1C934202D2E05C0028F9D126
:10038000A869E618C01AA861286A18442862284695
:10039000FFF7BCFF04E0D5E9012114F8010B9047F9
:1003A000B442F8D32846FFF7C7FF70BDF0B40D463E
:1003B0000188090502D5214C7C4402E01F4C7C4495
:1003C0000E34002100F1240608E002F00F071209A4
:1003D000E75D42EA03721B097754491C52EA03079E
:1003E000F3D102780023120704D5702D06D009B18D
:1003F000022311342246F0BC00F088B901231034E6
:10040000F8E770B504460D462146106800F075F90E
:10041000024629462046BDE870400023C6E7D21DAB
:1004200022F00703D3E90023C0E70368126843F012
:10043000200303600823C3610023B7E76C6E00004C
:100440002DE9F05F894604464FF0000ADFF874B1E9
:10045000FB44C0F820A02046E1688847002874D0FB
:10046000252806D0D4E901219047206A401C20624B
:10047000F1E700265F462046E168884720280546C8
:1004800007DB312D05D2781910F8200C08B106438E
:10049000F1E7B00701D526F00406C4F81CA0002738
:1004A000C4F818A02A2D09D0284606F0E9FA38B376
:1004B00004EB8708303DC8F8185019E059F8041BC0
:1004C000204604EB87029161E1688847012F0546C9
:1004D00018D1E069002820DA26F020061DE0D8F8BF
:1004E000180000EB800005EB40003038C8F8180019
:1004F0002046E1688847054606F0C2FA0028EED19A
:10050000012F0AD02E2D08D12046E16888477F1C94
:100510000546022F46F02006C4DBA069002803DA56
:10052000404246F00106A061F00701D026F0100617
:100530006C2D0BD0682D09D04C2D39D06A2D35D0BB
:10054000742D35D07A2D33D016E038E0E1682F468F
:1005500020468847B842054609D16C2F26D04FF473
:100560008060E168064320468847054604E06C2F1A
:100570001AD04FF4807006430DB3A5F1410019283D
:1005800002D8203546F400664A46294620462660B1
:100590004E46FFF7E5FD80B101280BD0F61D26F091
:1005A000070000F1080956E74020E4E78020D8E77B
:1005B0000020D6E706F104094DE7284652E7206AF5
:1005C000BDE8F09FFC6D000040EA010310B59B07F9
:1005D0000FD1042A0DD310C808C9121F9C42F8D0AD
:1005E00020BA19BA884201D9012010BD4FF0FF305E
:1005F00010BD1AB1D30703D0521C07E0002010BD74
:1006000010F8013B11F8014B1B1B07D110F8013BFF
:1006100011F8014B1B1B01D1921EF1D1184610BDE0
:1006200010B5431C02E010F8011B71B18107FAD12B
:100630004FF0013202C88C1A8C4314EAC211F9D06F
:10064000C01A0A0603D0C01E10BDC01A10BD0A048D
:1006500001D0801E10BD0902FCD0401E10BD4FF01D
:10066000000200B5134694469646203922BFA0E802
:100670000C50A0E80C50B1F12001BFF4F7AF09070E
:1006800028BFA0E80C5048BF0CC05DF804EB8900FF
:1006900028BF40F8042B08BF704748BF20F8022B42
:1006A00011F0804F18BF00F8012B7047704770475A
:1006B0007047000070B5064C7C44064D7D4403E055
:1006C000206820448047241DAC42F9D170BD000051
:1006D000986D0000986D000010B500F0D9FB001D6A
:1006E00010BD00BFD163000009684A0501D540B2C2
:1006F0007047C905FCD500B2704709684A0501D5A5
:10070000C0B27047C905FCD580B270472DE9F047EB
:100710000D4699469246044600F124080168880671
:1007200004D5E06921F01001216000E00120A84219
:1007300001DD471B00E00027A1697A1902EB0900DF
:10074000081AA0612078C00602D42046FFF7DEFD1B
:10075000002608E0D4E901211AF806009047206A33
:10076000401C761C20624E45F4DB2078C0060AD57A
:100770002046FFF7CBFD06E0D4E901213020904769
:10078000206A401C2062381EA7F10107F4DC07E054
:10079000D4E9012118F805009047206A401C206226
:1007A000281EA5F10105F3DC2046FFF7C5FD2078E2
:1007B000000602D50220BDE8F0870120FBE700001B
:1007C0002DE9F0410646002410687529314616A52A
:1007D00010D0FFF789FF002802DA404213A507E096
:1007E00031688A0701D512A502E0490704D511A591
:1007F000012401E0FFF781FF00210A2206F124070E
:1008000009E0B0FBF2FCB0FBF2F302FB1C0030305D
:1008100078541846491C0028F3D123462A4630460E
:10082000BDE8F041FFF772BF000000002D0000009E
:100830002B0000002000000011680268006A5305C8
:1008400001D508700AE0D30501D5088006E013063B
:1008500003D5C217C1E9000200E00860012070471B
:1008600070472DE9FF4F0C461E464FF0FF378BB007
:10087000D2E90001DDF860800A908A46C1F30A558A
:1008800005B93D46002108464FF00000BAF1000FBF
:1008900000F4400005DA00EB80004FF4400101EA6B
:1008A00050004FEA9059B9F1010F00DDB9460A989E
:1008B00050EA4A000ED044F61050A5F2FF354543E9
:1008C0002F14B8F1000F1ED07542291E1EDDC9F18C
:1008D00000021CE0B8F1010F4FF0000001D0302100
:1008E00003E0F24305E02154401CB042FBDB3046FC
:1008F0000022002121540B99C1F80880C1E9002091
:100900000FB0BDE8F08FBD1B6D1CDEE74A4600DA74
:10091000694206A800F05CFB06AB93E8070003AB56
:1009200083E8070050460A9900F05EFC8DE8070056
:10093000A0F500501F3800900398002D0ADD42F208
:100940001F014A460844002303A90390684600F0AB
:10095000C7FE09E0A0F500504A461F38002303A94E
:100960000390684600F0D1FE8DE807000004000CFB
:1009700003D04FF0FF30410800E01046B8F1000FFF
:1009800003D00022009215461EE0751E05D400F02B
:1009900083FA303262556D1EF9D5B3460122084301
:1009A00002D000227F1C04E02078302801D10022F0
:1009B0007F1E002A099784D01DE0112D07DA00F070
:1009C0006BFA303262556D1C50EA0102F5D10843D2
:1009D00002D00098C8B10EE00021681E05E0235C3B
:1009E000625C63542254401E491C8142F7DBAB46D3
:1009F000A81B401E0990002004F80B000B98099AD0
:100A0000C0F80880C0E9002B7AE711264FF00008F3
:100A100057E72DE9F04F88460446D21D22F0070122
:100A200091B0D1E90001CDE90A0106F00FF80246C4
:100A30000B98C00F01D02D2007E02068810701D559
:100A40002B2002E0202101EAC000032A099001D0F6
:100A5000072A05DB03464146204600F063FA0BE116
:100A60002078800601D5E06900E00620B8F1650F26
:100A7000814606D0B8F1660F18D0B8F1670F70D173
:100A800031E00020B9F1110F009001DB112301E0EA
:100A900009F101030AAA01A90CA8FFF7E2FEDDE9AA
:100AA0000C70002609F10105834647E001204B4602
:100AB00000904FF000470AAA01A90CA8FFF7D1FE49
:100AC000DDE90DB00C995D46002610B909F1010071
:100AD0000D18B9EB050003D4C0F1FF3609F101058B
:100AE000A5EB09002BE0B9F1010F01DA4FF0010984
:100AF0000020B9F1110F0090484601DD112300E0FC
:100B000003460AAA01A90CA8FFF7ABFEDDE90C70A9
:100B10004D4600268346207800070AD4AB4500DA0C
:100B20005D4601A8012D04DD411911F8011C302991
:100B300007D04F4502DA17F1040F04DA012082468C
:100B40000FE06D1EEEE7002F02DCED1B3E4403E0DC
:100B5000781CA84200DD7D1CB81B00F1010A4FF093
:100B600000472078000703D4AA4501DB4FF0FF3A85
:100B70000021B7F1004F0DF143088DF8431024D048
:100B800002202B23002F01DA7F422D230A21021E8F
:100B9000A0F1010000DC5FB197FBF1FC97FBF1F2E3
:100BA00001FB1C7C17460CF1300C08F801CDEEE778
:100BB000A8F1010003702188090501D5452100E055
:100BC0006521A0F1010800F8011C09980FA9A1EB0B
:100BD0000807FF1D00B10120411901EBEA70A1696E
:100BE0003844081A401EA0612078C00602D420466E
:100BF000FFF78CFB099828B1D4E901219047206ABE
:100C0000401C20622078C00622D52046FFF77EFBDC
:100C10001EE0002E04DBB34502DD01A8805D00E08C
:100C20003020D4E901219047206A401C2062761CC4
:100C3000AAF101005FEA000A0AD100F029F9C068B0
:100C40000168405CD4E901219047206A401C206281
:100C5000281EA5F10105DCDC07E0D4E9012118F824
:100C6000010B9047206A401C2062381EA7F1010743
:100C7000F3DC2046FFF760FB032011B041E60000E3
:100C800001694A1C02610878704700B58FB0CDE950
:100C900001310021059105497944CDE90310114640
:100CA0006846FFF7CDFB0FB000BD0000E5FFFFFF7A
:100CB0000A6802F8010B0A60704710B5436913B166
:100CC000AFF3008001E0FFF748FB012010BD127870
:100CD00000F124010A7000224A700122EDE7116838
:100CE0004FF0FF32E9E700002DE9FF5F15468A4625
:100CF0000446DFF8AC80F8440027D8E900103E46EF
:100D0000CDE9001010E03AF816106A4602A800F08B
:100D1000D1F9411C07D02178890603D5E269391839
:100D200091420DD80744761C2078800602D5E069F0
:100D3000B84205DDAE42E6DB3AF816000028E2D103
:100D4000A069C01BA0612046FFF7E0FAD8E90010B7
:100D5000CDE90010002017E03AF818106A4602A802
:100D600000F0A8F9B0F1FF3F81460BD000250DF14E
:100D7000080B05E0D4E901211BF8050090476D1C24
:100D80004D45F7D308F10100B0428046E4DB206A0C
:100D9000384420622046FFF7CFFABDE8FF9F0000ED
:100DA0006A6500002DE9F0418046D21D22F007025D
:100DB0000025D2E90002F52915A614D0011E72F112
:100DC000000106DA0023D0EB030063EB020211A658
:100DD00008E0D8F800108B0701D50FA602E04907FC
:100DE00001D50EA601251146002408F1240704E0D0
:100DF00000F052F830323A55641C50EA0102F7D143
:100E00002B46324621464046BDE8F041FFF77EBC06
:100E1000000000002D0000002B000000200000005A
:100E200030B4002100F1240408E002F00705D208E4
:100E3000303542EA4372DB086554491C52EA030527
:100E4000F3D10468002310A2250707D5A40600D417
:100E500021B1C46901230DA2641EC46130BCFFF737
:100E600055BC10B5044621461068FFF746FC024603
:100E70002046BDE810400023D2E7D21D22F0070132
:100E8000D1E90023CCE700000000000030000000A2
:100E9000004870474003002030B5B0F10A024FEA25
:100EA000900E71F100034EEA817EB0EB0E0061EB13
:100EB00091014FEA101E4EEA017E10EB0E0041EB4D
:100EC00011114FEA102E4EEA016E10EB0E0041EBAD
:100ED00011214FEA104E4EEA014E10EB0E0041EB8D
:100EE0001141401841F100014FEAD00040EA417041
:100EF0004FEAD10110EB80054FEA810444EA907477
:100F000044EB01046D1944EB0404521BA3414FF060
:100F1000000348BF0A3200D530BD401C41F100013A
:100F200030BD00002DE9F0411F460446032601684C
:100F3000072A01F4006004DB08B116A505E016A538
:100F400003E008B115A500E015A521F01000206010
:100F5000A069C01EA0610FB1401EA0612046FFF72E
:100F6000D5F94FB1D4E9012138469047206A401C99
:100F70002062C01C206206E0206AFAE7D4E9012161
:100F800015F8010B9047761EF8D22046FFF7D4F9EA
:100F9000BDE8F0814E414E006E616E00494E460044
:100FA000696E660010B5436913B1AFF3008001E0CC
:100FB000FFF79AFE012010BD128800F124018284FF
:100FC0000022C2840122EDE711684FF0FF32E9E709
:100FD0002DE9F047814616468AB0354878440DC859
:100FE0008DE80D0032487844801C03AC0DC884E8BD
:100FF0000D0041F69B300844372190FBF1F290FB45
:10100000F1F5A5F1800501FB12041B3C02D56442F9
:10101000012000E00020DFF898A080460027FA4475
:10102000AAF1BE0A0EE0E0070AD03246684607EB96
:10103000470101230AEB810100F067FB8DE80700FF
:1010400064107F1C002CEED1194F7F44AE3F19E095
:10105000E80715D007EB04100DF1180A90E80E0010
:101060008AE80E00C068F04201D198190890324613
:10107000012306A903A800F048FB03AB83E807009F
:101080006D10641C002DE3D14FF001033246694618
:10109000B8F1000F03A802D000F022FB01E000F03D
:1010A00034FBC9E90001C9F808200AB0BDE8F0879F
:1010B0000863000070B516460C460546FFF70CFBAA
:1010C000036893F80101012806D0FF2C0FD8185DA2
:1010D00068B101202C7070BDD3F80701324621465B
:1010E00003F2071303442846BDE8704018474FF049
:1010F000FF3070BD00487047200300207546FFF7A1
:10110000F9FFAE4605006946534620F007008546C4
:1011100018B020B5FFF79EF8BDE820404FF000065C
:101120004FF000074FF000084FF0000B21F00701CF
:10113000AC46ACE8C009ACE8C009ACE8C009ACE812
:10114000C0098D46704710B50446AFF300802046B5
:10115000BDE81040FFF769B84FF0013C50F8042B90
:1011600051F8043B9A4221D1A2EB0C03934313EABA
:10117000CC1317D150F8042B51F8043B9A4215D1E7
:10118000A2EB0C03934313EACC130BD150F8042BBE
:1011900051F8043B9A4209D1A2EB0C03934313EAA2
:1011A000CC13DBD04FF00000704700BFD01A01BA5B
:1011B000B1FA81F101F0180122FA01F0CB40C1F13E
:1011C0002001DBB2C0B2C01A2CFA01F3D11A91434C
:1011D00011EAC311E6D17047704700000149182099
:1011E000ABBEFEE7260002005FEA400C08BF91F0AC
:1011F000000F4FEA8C234FEAC12243EA51514FEAD4
:101200001C5018BF00F5F0404FEA300018BF41F005
:1012100000415FEA6C5C00F02980BCF1FF3F08BF31
:1012200040F080407047130C06BF12044FF0100CC2
:101230004FF0000C130E04BF12020CF1080C130F38
:1012400004BF12010CF1040C930F04BF92000CF1C7
:10125000020CD30F04BF52000CF1010C11464FF0E9
:101260000002A0F11F00A0EB0C00704711F0004F2E
:1012700008BF704731F000413FF4D5AF0B0C06BFFB
:1012800009044FF0100C4FF0000C0B0E04BF0902C4
:101290000CF1080C0B0F04BF09010CF1040C8B0FAF
:1012A00004BF89000CF1020CCB0F04BF49000CF104
:1012B000010CCCF12003A0EB0C0022FA03F302FA9C
:1012C0000CF241EA030100F10100704720F07F4C6D
:1012D00080EA030023F07F47ACEB070303F57C5360
:1012E00000F0004003F1FF032DE980494FEA154B60
:1012F00009B44FEA144325EA0B4E24EA03480FF2DF
:10130000042606EB132749083E785FEA320203FB06
:101310000667C7F5000707FB06F64FEA54374FEAA2
:10132000D64606F1020607FB066CCCF1005C4FEADC
:101330001C472CEA074C07FB06F40CFB06F504EBF4
:1013400015464FEA961634BF00204FF000404FEA92
:10135000D13706FB07FC4FEA1C4C0CFB0BF7D21BEA
:1013600003FB0CF761EB07010CFB0EF7B0EB07403A
:1013700072EB17420CFB08F734BFA2EB0742B2EB4B
:10138000074261EB17414FEA0C444FEA910706FB15
:1013900007FC4FEA1C4C0CFB0BF7B0EBC74072EBA1
:1013A000573203FB0CF734BFA2EBC742B2EBC74284
:1013B00061EB57310CFB0EF7B0EBC70072EB5772C5
:1013C0000CFB08F734BFA2EBC702B2EBC70261EB1C
:1013D0005771039F4FEA816141EA921104EBCC04FB
:1013E0004FEAD1374FEA826206FB07FC42EA9012CD
:1013F0004FEA80604FEA1C4C0CFB0BF7D21B03FB3F
:101400000CF761EB07010CFB0EF7B0EB074072EB3A
:1014100017420CFB08F734BFA2EB0742B2EB0742BE
:1014200061EB17414FEA8C554FEA910704EB9C247E
:1014300006FB07FC4FEA1C4C0CFB0BF7B0EBC7405C
:1014400072EB573203FB0CF734BFA2EBC742B2EB8F
:10145000C74261EB57310CFB0EF7B0EBC70072EBE4
:1014600057720CFB08F734BFA2EBC702B2EBC702FE
:1014700061EB577115EB4C254FEA816141EA9211FE
:101480004FEA82624FEAD13742EA901206FB07FC2C
:1014900044F100044FEA80604FEA1C4C0CFB0BF750
:1014A000D21B03FB0CF761EB07010CFB0EF7B0EB53
:1014B000074072EB17420CFB08F734BFA2EB074260
:1014C000B2EB074261EB174115EB1C154FEA813176
:1014D00041EA92414FEA823242EA90424FEA80303A
:1014E0004FEA0C7644F1000448EA03434EEA0B4805
:1014F0004FF0000EB2EB080C71EB030724BF6246FD
:1015000039464EEB0E0E4FF0000B00185241494188
:101510004BEB0B0BB2EB080C71EB03077BF1000BF1
:1015200024BF624639464EEB0E0E4FF0000B0018FA
:10153000524149414BEB0B0BB2EB080C71EB03072B
:101540007BF1000B24BF624639464EEB0E0E51EA8A
:10155000020718BF46F0010616EB0E7655F10002A1
:1015600054F1000103D5BDE88901BDE80088BDE85C
:101570008901BDE80048B619524141EB0101A3F1D0
:101580000103704780807F7E7D7C7B7A79787776D7
:1015900076757473727171706F6E6E6D6C6C6B6A50
:1015A0006A696868676666656464636362616160EE
:1015B000605F5F5E5E5D5D5C5C5B5B5A5A5959586B
:1015C00058575756565555555454535352525251D5
:1015D000515050504F4F4F4E4E4D4D4D4C4C4C4B2B
:1015E0004B4B4A4A4A494949484848474747474672
:1015F00046464545454444444443434343424242AE
:1016000042414141002B9C4630D477002BD01CB581
:101610004FEA370703B44FF010004FF01001BAF152
:10162000000F06D0BCF1000FDCBF40F0080040F016
:1016300008014FF000000FBCBDE810400BF1010B9A
:10164000BBF1010F08BF5FEA170722BF12F10102C9
:1016500011F101014FF0004143F1000300F000409F
:1016600043EA00007047F9D35708D0E746EA064638
:1016700013F1400F4FEA16461FDD13F1200FDFBFB5
:1016800016430A46002120335B42BED0C3F1200737
:1016900046EA064602FA07F74FEA164646EA070602
:1016A000C3F1200722FA03F201FA07F721FA03F146
:1016B0004FF0000342EA0702A7E746EA020646EABD
:1016C00006464FEA164646EA0106BCBF46EA06460B
:1016D000360C4FF000034FF000024FF0000194E78A
:1016E0002DE9804C9A46934670B491E8380007C8BB
:1016F00031EA400C48BF34EA430C03D5FFF7E6FD5E
:10170000FFF780FFF0BCBDE8008C2DE9804C9A46C5
:10171000934670B491E8380007C810F0804F08BFB6
:1017200013F0804F03D100F005F8FFF76BFFF0BC1A
:10173000BDE8008C20F07F4780EA030023F07F4C57
:1017400007EB0C03A3F57C5300F00040A3F1FE036C
:1017500092F0000F00F0B38095F0000F00F077805A
:101760002DE901494FEA11404FEA144621EA0048A9
:1017700000FB06FC24EA064708FB06F607FB08F810
:1017800000FB07F718EB06484CEB164C4FEA124BE0
:1017900018EB07484FEA15464CEB174022EA0B4E70
:1017A0000BFB06FC25EA06470EFB06F607FB0EFEC2
:1017B0000BFB07F71EEB064E4CEB164C4FF00006EA
:1017C0001EEB074E4CEB174B18EB0B0840F10000DB
:1017D00018EB0E0B58EB000840F100008F1A4FF089
:1017E00000013CBFC943661B14BFB5EB040C0021CC
:1017F0003CBFC943F61B4FEA17444EEA8E0E27EA58
:1018000004454FEA1C4704FB07622CEA074C05FB22
:1018100007F70CFB05F604FB0CFC16EB074642EB46
:10182000174216EB0C4642EB1C421BEB060658EB2C
:101830000202414146EA9E0601D5BDE80189B6197A
:10184000524141EB0101A3F10103BDE801894FEAD7
:1018500014454FEA114724EA054621EA074C05FBE7
:1018600007F406FB07F70CFB06F105FB0CFC11EB7C
:10187000074144EB17444FEA124711EB0C4144EB8C
:101880001C4422EA074C05FB07F206FB07F70CFB9A
:1018900006F605FB0CFC16EB074642EB174216EB6F
:1018A0000C4642EB1C456A1854F1000148BF7047D2
:1018B000B619524141EB0101A3F10103704795F0C4
:1018C000000F37D04FEA11424FEA144721EA02468F
:1018D00024EA074C02FB07F106FB07F70CFB06F4B2
:1018E00002FB0CFC14EB074441EB17414FEA154790
:1018F00014EB0C4441EB1C4125EA074C02FB07F5B5
:1019000006FB07F70CFB06F602FB0CFC16EB074682
:1019100045EB174516EB0C4645EB1C42121951F1ED
:10192000000148BF7047B619524141EB0101A3F1D4
:10193000010370474FEA14454FEA114724EA054670
:1019400021EA074C05FB07F106FB07F70CFB06F243
:101950004FF0000605FB0CFC12EB074241EB174170
:1019600012EB0C4251EB1C4148BF7047921841EBFF
:101970000101A3F10103704770B504460068816856
:1019800011F0010F25D0816821F00101816000F084
:1019900031FE05462068806810F0010F19D000BFA5
:1019A00000F028FE401B02280ED92068806810F045
:1019B000010F09D0A06A40F01000A062E06A40F078
:1019C0000100E062012070BD2068806810F0010F06
:1019D000E6D1002070BD000070B582B0002604463C
:1019E00001960068816811F0010F3CD1816841F0D7
:1019F00001018160264827490068B0FBF1F00190A1
:101A00000090C0B1B0F1004F3DD20028D8BF0020F7
:101A100005DD10F0010002D00199491E01910099E5
:101A2000401C491C884206DA019A801C521E521E34
:101A300001928842F8DB00F0DDFD054620688068F1
:101A400010F0010F0FD100BF00F0D4FD401B0228A1
:101A500004D92068806810F0010F07D020688068E2
:101A600010F0010FF0D002B0002070BDA06A40F06D
:101A70001000A062E06A40F00100E06284F8246097
:101A800002B0012070BD0198401E0190FCD1D2E748
:101A90006400002040420F00FEE7704770B5054625
:101AA00000F0A8FD294C0646E06810F0010F0ED0AA
:101AB000B5F1FF3F07D025B100F09CFD801BA84287
:101AC00001D9032070BDE06810F0010FF0D1E0688B
:101AD00010F0200F1CBF2020E060E06810F0100F15
:101AE00001BFE06910F0010FE06810F0040008BFCA
:101AF00070BD0021E06810F0100F154804D0C169D6
:101B000041F00201C1611021E26812F0040F05D01A
:101B1000C26942F00102C26141F00401E26912F0BF
:101B2000010F07D0C26942F00402C261E06920F0EF
:101B30000100E061A1F58070013818BFE16003D1B8
:101B4000E06920F00100E061012070BD002002404A
:101B5000B8000020F0B583B000250446029590F847
:101B60002400012802BF022003B0F0BD012084F848
:101B700024002046FFF700FF070075D1A06A20F47B
:101B8000885040F00200A062022001F029F93B4990
:101B90000968B1FBF0F040000290009018D0B0F15D
:101BA000004F66D20028D8BF002005DD10F00100EC
:101BB00002D00299491E02910099401C491C88429A
:101BC00006DA029A801C521E521E02928842F8DBEC
:101BD0002046FFF701FF2068816841F0080181601D
:101BE00000F008FD06462068806810F0080F0ED04F
:101BF00000F000FD801B0A2804D92068806810F0DE
:101C0000080F1BD12068806810F0080FF0D1206801
:101C1000816841F00401816000F0ECFC0646206818
:101C2000806810F0040F19D000F0E4FC801B0A2833
:101C30000FD92068806810F0040F0AD0A06A20F045
:101C4000020040F01000A06284F8245003B001208C
:101C5000F0BD2068806810F0040FE5D1A06A20F084
:101C6000020040F00100A06284F8245003B038461E
:101C7000F0BD0298401E0290FCD1A9E7640000204C
:101C800070B483B04FF0000CCDF808C090F8242059
:101C90006446012A01BF022003B070BC70470122D4
:101CA00080F824204A681F23072A0DD205686E6B2E
:101CB000521E02EB8202934026EA03030E6806FAE4
:101CC00002F21A436A631BE005680D2A0CD22E6BE0
:101CD000D21F02EB8202934026EA03030E6806FA43
:101CE00002F21A432A630BE0EE6A0D3A02EB82021B
:101CF000934026EA03030E6806FA02F21A43EA62E8
:101D00000A68072503680A2A0CD3DE680A3A02EB40
:101D10004202954026EA05058E6806FA02F22A4339
:101D2000DA600AE01E6902EB4202954026EA0505E8
:101D30008E6806FA02F22A431A610A68102A18BF4E
:101D4000112A0BD10268A2F18043B3F592330BD074
:101D5000816A41F0200181624FF0010C80F824403B
:101D600003B0604670BC7047936813F4000FF5D160
:101D7000936843F40003936009681029EED1154974
:101D8000154A0968B1FBF2F101EB810149000291AA
:101D90000091E3D0B1F1004F16D20029D8BF002145
:101DA00005DD11F0010102D0029A521E0292009A42
:101DB000491C521C9142D1DA029B891C5B1E5B1E9E
:101DC00002939142F8DBC9E70299491E0291FCD1C6
:101DD000C4E700006400002040420F000068C06CAF
:101DE000704700002DE9F0414FF0000704003D4628
:101DF00004BF0120BDE8F081A06A002628B9E66290
:101E000084F82460204600F085F82046FFF7B4FDF2
:101E10000146A06A10F0100F08BF002904D0A06A84
:101E200040F01000A0626AE0A06A20F4885040F000
:101E30000200A062E2696068237B40EA020047EA90
:101E4000430240EA0202A068B0F5807F1ABF012871
:101E500000204FF4807094F814C0BCF1010F08D139
:101E6000F3B1A36A43F02003A362E36A43F00103E2
:101E7000E3622368D3F804C02CF4694C4CEA0000F8
:101E8000586020688368DFF880C003EA0C031343BE
:101E90008360A068B0F5807F18BF01280FD109E0EA
:101EA000DFF868C0A3690CEB433343EA000040F459
:101EB0000060DEE7208A4FEA0050A0F58015206818
:101EC000C36A23F4700343EA0503C3622068806891
:101ED0000F4B00EA0300904207D1E662A06A20F0AF
:101EE000020040F00100A0620AE0A06A20F00200B7
:101EF00040F01000A062E06A40F00100E0620121C1
:101F00000846BDE8F0810000FDF7E1FF00E0FFFFBB
:101F1000FE0E1FFF704700002DE9F8434FF0000848
:101F20000D460446CDF8008000F064FB06462068AC
:101F3000816811F4807F08D0A06A40F02000A06280
:101F400084F824800120BDE8F883416811F4807F83
:101F500004BFC16A11F4700F1FD0022000F040FFCF
:101F600043490968B1FBF0F320680169414A114215
:101F70004FEA62014FEAA11228D1D0F80CC04F11EC
:101F80001CEA070F22D1D0F810C01CEA010F05BFD0
:101F9000C06810422920142029E0006810F0020FC8
:101FA00044D100BFB5F1FF3F0AD025B100F022FBBC
:101FB000801BA84204D92068006810F0020F27D0C7
:101FC0002068006810F0020FECD02FE0D0F810C0AD
:101FD0001CEA010F04BFC168114207D002692649FB
:101FE0000A4206BFC0680842FC2000D1542003FB0F
:101FF00000F70098B84219D2B5F1FF3F11D025B1D2
:1020000000F0F8FA801BA8420BD90098874208D943
:10201000A06A40F00400A06284F824800320BDE898
:10202000F8830098401C0090B842E5D321686FF017
:1020300012000860A06A40F40070A0622068806806
:102040004FF4602131EA000004BF207B00280BD14F
:10205000A06A20F48070A062A06A10F4805F03D1AF
:10206000A06A40F00100A0624FF00000BDE8F883D4
:1020700064000020244992244992240070B504464B
:1020800090F82400012804BF022070BD012084F8CC
:1020900024002046FFF7A0FC02004FF0000018BF0C
:1020A00084F8240001D0104670BDA16A21F001011E
:1020B00021F4007141F48071A162DFF88CC02368C3
:1020C0002249634528D10D6815F4702F24D0A56AE4
:1020D00045F48015A5620D6815F4806F05D0A56ADA
:1020E00025F4005545F48055A562A56A15F4805F76
:1020F00008BFE06203D0E56A25F00605E56284F8D2
:1021000024006FF002001860206883684FF4602498
:1021100034EA030309D00EE0A56A25F48015A56210
:102120005D6815F4806FE0D0D9E7604508D1096893
:1021300011F4702F04D0816841F480118160B2E7FE
:10214000816841F4A001F9E700280140042401401E
:1021500090F821200021022A05D00422826380F811
:102160002010012070470268136823F00E031360EB
:102170000268136823F00103136090F84030D0F830
:102180003CC0012202FA03F3CCF8043080F821208D
:1021900080F820100846704710B590F821100024F0
:1021A000022903D004218163012439E001680A680F
:1021B00022F00E020A6001680A6822F001020A6039
:1021C000184A0168914208BF01211DD0164A914268
:1021D00008BF102118D0154A914208BF4FF48071F2
:1021E00012D0134A914208BF4FF480510CD0114ACB
:1021F000914208BF4FF4803106D00F4A91420CBF84
:102200004FF480114FF080710C4A5160012180F829
:102210002110002180F82010416B002918BF884749
:10222000204610BD080002401C0002403000024061
:1022300044000240580002406C000240000002408E
:1022400070B5044600F0D6F90546B4F1FF3F02D060
:1022500004480078044400F0CDF9401BA042FAD3B2
:1022600070BD0000000000200348016941F08001BA
:102270000161002070470000002002402DE9FF5F4F
:10228000DFF840810646002598F8180082B0924693
:102290009B46012802BF022006B0BDE8F09F012442
:1022A00088F818404CF25030FFF7F8FB4FF0000967
:1022B00000287DD1012E08BF012026D0022E0EBF9E
:1022C00002200420009020D03F4C03982A0100EB0C
:1022D000450650465946FDF7CFFFC8F81C902169C6
:1022E00041F00101216130804CF2503600F082F95A
:1022F0000746E06810F0010F0DD000BF00F07AF93A
:10230000C01BB04203D903204AE00090DCE7E0683C
:1023100010F0010FF2D1E06810F0200F1CBF202058
:10232000E060E06810F0100F04BFE06910F0010FEA
:1023300005D1E06810F0040F08BF484630D0E168CE
:10234000002011F0100F06D0D8F81C0040F0020059
:10235000C8F81C001020E16811F0040F07D0D8F86D
:102360001C1041F00101C8F81C1040F00400E169A4
:1023700011F0010F09D0D8F81C1041F00401C8F881
:102380001C10E16921F00101E161A0F580710139C2
:1023900018BFE06003D1E06920F00100E061012096
:1023A000216921F00101216110B9691CCDB200E061
:1023B00002E000998D4288D388F8189006B0BDE8F5
:1023C000F09F0000B80000200020024008490020D3
:1023D0000A6912F0800F08BF7047064A4A60064A31
:1023E0004A60096911F0800F18BF01207047000092
:1023F0000020024023016745AB89EFCD00230A6826
:102400009C46002A08BF70472DE9F84F704EDFF850
:10241000BC914FF001080F2706F1040E0A6808FA74
:1024200003F42240A2427DD14D68A5F1805AAAF55D
:10243000881A4D4577D077DC032D08BF4FF0000C8C
:102440001BD00DDC002D6ED0012D08BFD1F80CC0C3
:1024500013D0022D04BFD1F80CC00CF1080C0CE015
:10246000112D04BFD1F80CC00CF1040C05D0122DB5
:1024700004BFD1F80CC00CF10C0CB2F5807F34BF56
:102480000546051D4FEA830428BF203CD5F800A06F
:1024900007FA04FB2AEA0B0A0CFA04F44AEA0404D9
:1024A0002C604C6814F0805F64D04A4CA56945F0FC
:1024B0000105A561A46904F00104009423F003045C
:1024C00004F1804505F58035D5F808A04FEA8374FE
:1024D0004FEA147407FA04FB2AEA0B0AA0F1804BB6
:1024E000BBF5843B18D0A0F1804BBBF5863B08BF01
:1024F0004FF0010B10D0A0F1804BBBF5883B08BF1B
:102500004FF0020B08D0A0F1804BBBF58A3B0CBF0B
:102510004FF0030B4FF0040B0BFA04F444EA0A04E7
:10252000AC6002E026E03FE02BE04C6814F4803F12
:10253000346814BF1443944334604C6814F4003F6F
:10254000DEF8004014BF14439443CEF800404C68BA
:1025500014F4801F204C256814BF15439543256053
:102560004C6814F4001F1D4C256814BF2A4325EA4B
:10257000020222600A685B1CDA407FF44FAFBDE8BC
:10258000F88FBAF5881F0FD007DCBAF5803F18BF67
:10259000BAF5801F7FF471AF06E0BAF5001F18BFCF
:1025A000BAF5041F7FF469AFD1F808C0BCF1000F81
:1025B00008BF4FF0040C3FF460AFBCF1010F4FF0C7
:1025C000080C0CBF0461446157E7000000001110C3
:1025D0000004014000100240080401400C040140C6
:1025E0008068084018BF01207047002A08BF09040E
:1025F00001617047014880687047000000000020BA
:10260000002804BF0120704710B50446242084F838
:102610003D002068016821F001010160204600F0C2
:1026200037FB0020206484F83D00206384F83E00DE
:1026300084F83C0010BD90F83D007047002804BFAE
:102640000120704770B5044690F83D00002520B980
:1026500084F83C50204600F01CFB242084F83D0008
:102660002068016821F0010101602068016841F4DF
:10267000004101602068016821F40041016000F020
:10268000ABFD544A6168914203D85349814203D853
:1026900004E05249814201D9012070BD50492368AC
:1026A000B0FBF1F1D3F804C02CF03F0C4CEA010C64
:1026B000C3F804C063689A4228BF4B1C07D24FF48A
:1026C000967359434FF47A73B1FBF3F14B1C2168B5
:1026D000D1F820C02CF03F0C43EA0C030B62616878
:1026E0008A420FD34900401EB0FBF1F2521CC2F3E4
:1026F0000B02042A31BF0420B0FBF1F0401CC0F3F0
:102700000B0023E0A268002A53D001EBC10303EBC6
:102710000113A0F1010CBCFBF3F35B1C43F48043F9
:102720001B051B0D08BF012010D0002A49D001EB6A
:10273000C10202EB0111401EB0FBF1F0401CC0F3DE
:102740000B0040F4804000BF40F400402168CA699B
:1027500022F0FF0222F44F421043C861D4E907017E
:1027600001432068026822F0C00211430160D4E9ED
:10277000031001432068826822F0FF0222F4034222
:1027800011438160D4E9050101432068C26822F049
:10279000FF021143C1602068016841F0010101603E
:1027A0002564202084F83D00256384F83E500020F5
:1027B00070BD01EB4103A0F1010CBCFBF3F35B1C0A
:1027C000AEE701EB4101401EB0FBF1F0401CC0F34D
:1027D0000B00B9E7A086010080841E0000093D00BF
:1027E00040420F002DE9FF4F83B00026DDE911853F
:1027F0009A4693460446DDF840900096FFF7FAFEAD
:10280000074694F83D00202840F0608119230122FA
:10281000B0492046009702F0B1FA002840F05681F6
:1028200094F83C00012800F05181012084F83C001C
:102830002068016811F0010F03D1016841F0010126
:1028400001602068016821F400610160222084F8A1
:102850003D00402084F83E002664C4F82490A4F88B
:102860002A80608D20859C48E062CDE90057534660
:102870005A462046049902F099F900286AD1208D21
:1028800058B3012832D00228206801683ED041F4B4
:10289000806101602068416980690090208D4FF05F
:1028A0002008002800F00881DFF830A26FF010093E
:1028B00046F2A81B80B2032800F2C680012833D05C
:1028C000022887492B464FF000022046009767D028
:1028D00002F054FA00286CD065E0206841698169F3
:1028E0000091016841F400710160D7E72068016838
:1028F00021F48061016072B62068416981690091AC
:10290000016841F40071016062B6C7E741F40061FB
:10291000016072B62068416981690091016821F403
:102920008061016062B6B9E72068406910F0400F2D
:102930001CD12068406910F0100F0CD02068C0F83E
:102940001490266384F83D8084F83E60206C2064F7
:1029500084F83C6027E0FFF74DFEC11BA94213D865
:1029600095B12068406910F0400FE2D020680069FE
:10297000616A0870606A401C6062208D401E20857C
:10298000608D401E608593E0266384F83D8084F866
:102990003E60206C40F02000206484F83C6002E03F
:1029A00002F0ECF918B107B00120BDE8F08F72B663
:1029B00025E02068016821F48061016072B620681A
:1029C0000069616A0870606A401C6062208D401E68
:1029D0002085608D401E6085DAF80000B0FBFBF0BA
:1029E000C0EBC00000EB80000090401E00901BD0A8
:1029F0002068406910F0040F08BF0098F5D02068E7
:102A0000016841F40071016020680069616A087022
:102A1000606A401C6062218D491E2185618D491EBE
:102A2000618562B6216838E0266384F83D8084F8C9
:102A30003E60206C40F02000206462B684F83C6068
:102A400007B00120BDE8F08F2068406910F0400F0A
:102A500011D12068406910F0100F7FF46FAFFFF7BD
:102A6000C9FDC11BA9428FD8002D8DD020684069B7
:102A700010F0400FEDD020680069616A0870606A4C
:102A8000401C6062218D491E2185618D491E618532
:102A900021684A6912F0040F0AD009690170606A5E
:102AA000401C6062208D401E2085608D401E608528
:102AB000208D00287FF4FEAE84F83D8084F83E60CF
:102AC00084F83C6007B00020BDE8F08F07B002201A
:102AD000BDE8F08F020010000000FFFF640000203E
:102AE000040001002DE9FF4F83B09A46DDE911870C
:102AF00093460446DDF84090FFF77CFD064694F8C7
:102B00003D0020287ED1192301225F4920460096EE
:102B100002F034F9002875D194F83C00012871D0F6
:102B2000012084F83C002068016811F0010F03D1F6
:102B3000016841F0010101602068016821F4006131
:102B40000160212084F83D00402084F83E000025EB
:102B50002564C4F82490A4F82A80608D20854B4811
:102B6000E062CDE9007653465A462046049902F0C9
:102B7000ABF800287FD1208D002830D0324639466E
:102B8000204602F04EF940B1206C042873D1206831
:102B9000016841F4007101606DE0606A21680078AD
:102BA0000861606A411C6162208D401E80B22085F0
:102BB000628D521E62852268536913F0040F0BD098
:102BC00068B108781061606A401C6062208D401E08
:102BD0002085608D401E6085208D0028CED1206824
:102BE000B04640694FF0200610F0040F25D1206850
:102BF000406910F4806F11D021686FF480604861E3
:102C0000256300E03BE084F83D6084F83E50206C92
:102C100040F00400206484F83C5029E0B7F1FF3F05
:102C200006D0FFF7E7FCA0EB0800B84215D8A7B123
:102C30002068406910F0040FD9D02068016841F481
:102C40000071016084F83D6084F83E5084F83C5087
:102C500007B00020BDE8F08F0DE0256384F83D60EB
:102C600084F83E50206C40F02000206484F83C50F2
:102C7000206C04288BD007B00120BDE8F08F07B08E
:102C80000220BDE8F08F0000020010000000FFFFEE
:102C9000704770470248816802781144816070472C
:102CA00000000020074810B5016841F010010160E4
:102CB000032000F06BF8002000F006F800F024F884
:102CC000002010BD0020024070B50D4D04464FF4A9
:102CD0007A712878B1FBF0F00A490968B1FBF0F08D
:102CE00000F024FF48B9102C07D200222146501EC4
:102CF00000F01AF800206C6070BD012070BD00006B
:102D0000000000206400002070470028B8BF704712
:102D100000F01F01012202FA01F14009800000F1D8
:102D2000E020C0F800117047174B10B41B68C3F3C4
:102D30000223C3F1070CBCF1040F88BF4FF0040C51
:102D40001C1D072C34BF0023DB1E012404FA0CFCDD
:102D5000ACF1010C0CEA0101994004FA03F35B1E8B
:102D60001A40114300284FEA0111A1BF00F1E020F1
:102D700080F8001410BC704700F00F0000F1E02054
:102D800080F8141D10BC70470CED00E0074900F0FE
:102D900007000A684FF6FF031A4042EA002040F09D
:102DA000FD7040F080600860704700000CED00E0AE
:102DB0000248016821F002010160704710ED00E057
:102DC0000648026822F004020260012904BF30BFF5
:102DD000704740BF20BF20BF7047000010ED00E0EB
:102DE00010B586B001460FF2D80C9CE80D108DE8A6
:102DF0000D1037A0374C00680490002001292CD01A
:102E0000022951D010291CBF06B010BD616822688C
:102E100012F0807F04BF06B010BDC1F3834211F4ED
:102E2000803F1DF8020004BF2B49484308D0616869
:102E300004AAC1F34041515C284AB2FBF1F1484376
:102E4000616811F4800F1CBF06B010BD400024491A
:102E500006B0A1FB0010400810BD216A01F44072C9
:102E6000B2F5807F06D111F0020F1EBF4FF4004073
:102E700006B010BDB2F5007F07D1626A12F0020FF2
:102E80001EBF49F6404006B010BD4FF4407232EA12
:102E900001011CBF06B010BD216811F4003F18BF2E
:102EA0004FF2244006B010BD00F0A6F9616806B0EC
:102EB000C1F38131491C4900B0FBF1F010BD0000A5
:102EC00002030405060708090A0B0C0D0E0F10106B
:102ED000010200000010024000093D0000127A00CB
:102EE000ABAAAAAA2DE9F84304460078DFF81481BA
:102EF00010F0010F6AD0D8F81C00002710F0805F96
:102F00000BD1D8F81C0040F08050C8F81C00D8F84D
:102F10001C00012700F0805000903B4E306810F4F8
:102F2000807F14D1306840F480703060FFF762FB1E
:102F30000546306810F4807F09D100BFFFF75AFBC7
:102F4000401B64282BD8306810F4807FF6D0D8F866
:102F5000200010F440702AD0A18801F44071814211
:102F600025D0D8F82000012220F4407127480260C3
:102F700000220260C8F8201011F0010F17D0FFF7EF
:102F800039FB0546D8F8200010F0020F08BF41F2C7
:102F900088360CD1FFF72EFB401BB04202D903202C
:102FA000BDE8F883D8F8200010F0020FF2D0D8F86E
:102FB0002000616820F440700843C8F820002FB159
:102FC000D8F81C0020F08050C8F81C00207810F0C1
:102FD000020F07D0D8F80400A16820F4404008434D
:102FE000C8F80400207810F0100F07D0D8F80400BB
:102FF000E16820F480000843C8F804000020BDE820
:10300000F88300000010024000700040400442427B
:10301000002804BF012070472DE9F043DFF89481B8
:10302000054685B0D8F800000E4600F00700B04213
:103030000CD2D8F8000020F007003043C8F8000098
:10304000D8F8000000F00700B04265D128685A4C5B
:1030500010F0020F14D010F0040F03D0606840F499
:10306000E0606060287810F0080F03D0606840F4DA
:10307000605060606068A96820F0F00008436060FC
:10308000287810F0010F34D06868012821D0216819
:10309000022823D011F0020F3ED0616821F0030115
:1030A00008436060FFF7A6FA07466068696800F0A9
:1030B0000C00B0EB810F18BF41F2883919D000BF66
:1030C000FFF798FAC01B48450CD905B00320BDE8AE
:1030D000F083216811F4003FDFD11DE011F0007F83
:1030E000DBD119E06068696800F00C00B0EB810F7B
:1030F000E6D1D8F8000000F00700B04211D9D8F8A6
:10310000000020F007003043C8F80000D8F80000A5
:1031100000F00700B04204D005B04FF00100BDE858
:10312000F083287810F0040F06D06068E96820F476
:10313000E06040EA01006060287810F0080F06D0D7
:103140006068296920F4605040EAC10060601B4952
:103150000FC98DE80F001A4800680490616819488B
:1031600011F00C0218BF042A14D0082A12D1C1F39E
:10317000834211F4803F1DF8020004BF1249484306
:1031800008D0616804AAC1F34041515C0D4A504324
:10319000B0FBF1F061680D4AC1F30311515CC84006
:1031A0000B4908600B480068FFF78EFD05B0002052
:1031B000BDE8F08300200240001002407032000899
:1031C0008032000800127A0000093D009471000866
:1031D0006400002004000020044805490068496894
:1031E000044AC1F30221515CC840704764000020CA
:1031F00000100240A47100080448054900684968AD
:10320000044AC1F3C221515CC840704764000020E9
:1032100000100240A471000815A186B00FC98DE806
:103220000F0017A0174A006804905168164811F063
:103230000C0312BF042B06B07047082B1CBF06B04E
:103240007047C1F3834311F4803F1DF8030001BFB1
:103250000E49484306B07047516804AAC1F3404183
:10326000515C094A06B05043B0FBF1F070470000D2
:1032700002030405060708090A0B0C0D0E0F1010B7
:10328000010200000010024000127A0000093D0017
:10329000002804BF012070472DE9F84F044600784C
:1032A000E84D10F0010F59D0686800F00C000428B8
:1032B00008D0686800F00C0008280CD1686810F489
:1032C000803F08D0286810F4003F47D0606800288D
:1032D00000F0B28142E06068B0F5803F04BF28682A
:1032E00040F480300AD010B1B0F5A02F11D028687A
:1032F00020F480302860286820F4802028606068EE
:10330000D0B1FFF777F90646286810F4003F08D0DF
:1033100024E0286840F480202860286840F4803049
:10332000ECE7FFF767F9801B642800F23681286814
:1033300010F4003FF5D011E0FFF75CF9064628686D
:1033400010F4003F0AD000BFFFF754F9801B642837
:1033500000F22381286810F4003FF5D12078BA4E9E
:1033600010F0020F4FF0010B4FF0000845D06868D5
:1033700010F00C0F14D0686800F00C00082804BF8F
:10338000686810F4803F0BD0206918B3C6F800B00D
:10339000FFF730F90746286810F0020F09D011E056
:1033A000286810F0020F1CBF206901280AD000F025
:1033B00043B9FFF71FF9C01B02287DD8286810F019
:1033C000020FF6D02868616920F0F80040EAC100D9
:1033D000286012E0C6F80080FFF70CF9074628685D
:1033E00010F0020F09D000BFFFF704F9C01B02283C
:1033F00062D8286810F0020FF6D1207810F0080F7C
:1034000035D09248A169F9B1C0F800B0FFF7F2F8E1
:103410000746686A10F0020F09D100BFFFF7EAF80B
:10342000C01B022848D8686A10F0020FF6D08848FE
:1034300001684FF4FA50B1FBF0F0009000BF009823
:10344000411E0091FAD212E0C0F80080FFF7D2F8D6
:103450000746686A10F0020F09D000BFFFF7CAF8EC
:10346000C01B022828D8686A10F0020FF6D1207815
:1034700010F0040F79D0E8694FF0000A10F0805F77
:1034800009D1E86940F08050E861E8694FF0010A2D
:1034900000F080500090DFF8BC91D9F8000010F4E3
:1034A000807F19D1D9F8000040F48070C9F800007D
:1034B000FFF7A0F8074600E06FE0D9F8000010F42D
:1034C000807F09D1FFF796F8C01B642865D8D9F82A
:1034D000000010F4807FF5D0E068012804BF286A5E
:1034E00040F0010009D008B1052813D0286A20F067
:1034F00001002862286A20F004002862E06841F296
:103500008837D0B1FFF776F88146286A10F0020FAD
:1035100008D023E0286A40F004002862286A40F0BE
:103520000100EAE7FFF766F8A0EB0900B84234D8DB
:10353000286A10F0020FF5D010E0FFF75BF8814623
:10354000286A10F0020F09D0FFF754F8A0EB090029
:10355000B84222D8286A10F0020FF5D1BAF1000F54
:1035600003D0E86920F08050E861E069F0B3696851
:1035700001F00C01082950D00228C6F860800FD055
:10358000FFF738F80446286810F0007F57D000BFD6
:10359000FFF730F8001B02283AD90320BDE8F88F66
:1035A000FFF728F80746286810F0007F09D000BF11
:1035B000FFF720F8C01B0228EFD8286810F0007F22
:1035C000F6D1206AB0F5803F05D16868A16820F483
:1035D000003008436860D4E908010843696821F4B1
:1035E000741108436860C6F860B000E027E0FFF798
:1035F00001F80446286810F0007F20D1FEF7FAFF9A
:10360000001B0228C9D8286810F0007FF6D016E009
:10361000286810F0007FBBD111E0012808BFBDE889
:10362000F88F6868226A00F48031914204D1616A9F
:1036300000F47010884202D00120BDE8F88F00200D
:10364000BDE8F88F00100240000042428004424270
:1036500064000020007000404FF0E020016941F05C
:10366000020101617047002804BF0120704710B5B6
:103670000446022084F851002068016821F04001CE
:103680000160204600F063F80020606584F8510076
:1036900084F8500010BD002804BF0120704770B5A9
:1036A0000446406A002500281CBF2561656104D0DE
:1036B000A56294F8510058B905E06068B0F5827FC2
:1036C00018BFE561F4E784F85050204600F040F858
:1036D000022084F851002068016821F04001016057
:1036E000A088218900F4827001F404410843A18973
:1036F00001F400610843217C01F002010843217DAF
:1037000001F001010843218B01F400710843217F7E
:1037100001F03801084394F8201001F080010843BB
:10372000218D01F40051084321680860A06904213B
:1037300001EA1040216848602068C16921F40061F5
:10374000C1616565012084F85100002070BD70479B
:1037500070472DE9F84F044690F8500000271D46A9
:1037600092468B46012804BF0220BDE8F88F4FF037
:10377000010984F85090FEF73DFF064694F8510089
:103780004FF00008012818BF02276FD1BBF1000FCE
:1037900018BFBAF1000F6AD04FF0030084F851004F
:1037A000C4F85480C4F830B0A4F834A0A4F836A00B
:1037B000C4F83880A4F83C80A4F83E80C4F8448063
:1037C000C4F84080A068B0F5004F09D120680168B6
:1037D00021F0400101602068016841F480410160EE
:1037E0002068016811F0400F03D1016841F04001E9
:1037F0000160E068B0F5006F606805D0002818BF70
:10380000BAF1010F34D03DE0002818BFBAF1010F22
:103810000BD1206B21680088C860206B00F102008A
:103820002063E08EA0F10100E086E08E002847D002
:103830002068816811F0020F09D0216B0988C160EE
:10384000206B801C2063E08E401EE0860AE0FEF7BD
:10385000D1FE801BA84203D3B5F1FF3F41D101E067
:10386000002D3ED0E08E0028E2D129E042E040E089
:10387000206B216800780873206B401C2063E08E69
:10388000401EE086E08ED8B12068816811F0020FFA
:1038900009D0216B09780173206B401C2063E08EF6
:1038A000401EE08609E0FEF7A5FE801BA84203D378
:1038B000B5F1FF3F15D100E09DB1E08E0028E3D1C6
:1038C0002B46002280212046009601F0EFFA28B115
:1038D000606D40F02001616520206065A06830B90E
:1038E00001E0032706E02068C16880680090606DF1
:1038F00000B1012784F8519084F850803846BDE823
:10390000F88F2DE9F84F044690F850000A9D1E46A6
:1039100093468A464FF001084FF00009012804BF82
:103920000220BDE8F88F012084F85000FEF762FE07
:10393000074694F851006168012809D0B1F5827FEB
:1039400003BFA168002904284FF0020940F0E2807B
:10395000BAF1000F1ABFBBF1000F002E4FF00109A2
:1039600000F0D88094F8510004281CBF052084F88A
:10397000510000206065C4F838B0E687A687C4F817
:1039800030A0E686A686206460642068016811F095
:10399000400F03D1016841F040010160E068B0F5DB
:1039A000006F606804D0002818BF012E60D0A1E02D
:1039B000002818BF012E41D1206B21680088C86003
:1039C000206B00F102002063E08EA0F10100E08690
:1039D00034E02068816811F0020F1CBFE18E0029DD
:1039E0000FD0B8F1010F0CD1216B0988C160206B99
:1039F00000F102002063E08EA0F10100E0864FF0AC
:103A000000082068816811F0010F1CBFE18F0029B8
:103A10000CD0C068A16B0880A06B00F10200A0630D
:103A2000E08FA0F10100E0874FF00108FEF7E2FD12
:103A3000C01BA84202D3B5F1FF3F62D1E08E00283F
:103A400004BFE08F0028C4D12B464FF000024FF096
:103A500080012046009701F029FA002854D0606DBB
:103A600040F02001616520204FF00109606551E0C0
:103A7000206B216800780873206B401C2063E08E67
:103A8000401EE08636E02068816811F0020F1CBFFE
:103A9000E18E00290FD0B8F1010F0CD1216B09780C
:103AA0000173206B00F101002063E08EA0F10100A2
:103AB000E0864FF000082068816811F0010F1CBFFC
:103AC000E18F00290CD0C068A16B0870A06B00F1D9
:103AD0000100A063E08FA0F10100E0874FF0010832
:103AE000FEF788FDC01BA84203D3B5F1FF3F01D00C
:103AF00007E035B1E08E002804BFE08F0028C2D176
:103B0000A2E74FF0030905E0A06818B92068C16872
:103B1000806800904FF0010084F851004FF00000E1
:103B200084F850004846BDE8F88F0000411EB1F10E
:103B3000807F24BF012070474FF0E0204161054A9B
:103B4000F02182F8141D002181610721016100200C
:103B5000704700000FE000E04FF0E020016921F025
:103B60000201016170477047704790F83C20012ABC
:103B700004BF02207047012280F83C20CA688B688D
:103B800022F440721A434B6822F480621A430B6895
:103B900022F400621A430B6922F480521A434B69E3
:103BA00022F400521A43C96922F480421143026888
:103BB0005164002180F83C100846704790F83C2082
:103BC000012A04BF0220704730B4012380F83C3042
:103BD000022280F83D2002685468D2F808C00D68BF
:103BE00024F070042C4354600268A2F18044B4F5C0
:103BF000963418BFB2F1804F09D0A2F18044B4F5D9
:103C000080641CBFA2F18044B4F5006405D149680A
:103C10002CF0800C41EA0C01916080F83D300021CD
:103C200080F83C1030BC08467047022361B104297B
:103C300035D008293BD090F84520012A08BF80F8EC
:103C4000453008D00120704790F84220012A08BF73
:103C500080F84230F6D101F01F0302680421994038
:103C6000136A8B431362136A1943116201684A6C29
:103C700042F400424A640068A0F18041B1F59631F7
:103C800018BFB0F1804F1AD0A0F18041B1F580612A
:103C90001CBFA0F18041B1F5006110D014E090F894
:103CA0004320012A08BF80F84330CBD1D3E790F8F6
:103CB0004420012A08BF80F84430C3D1CBE7816893
:103CC00001F00701062903D0016841F001010160FC
:103CD0000020704730B40268002301F01F0C042458
:103CE000156A04FA0CF425EA04041462146A03FA4F
:103CF0000CF3234313620268D2F820C041F211137F
:103D00001CEA030F40F2444C04BF146A14EA0C0F7F
:103D100003D1546C24F4004454640268146A1C42B5
:103D200004BF136A13EA0C0F03D1136823F00103D5
:103D300013600122002908BF80F842200AD004291C
:103D400008BF80F8432005D008290CBF80F8442024
:103D500080F84520002030BC7047002804BF0120B7
:103D6000704710B5044690F83D0028B9002084F84B
:103D70003C00204600F01EF8022084F83D00211D82
:103D8000206800F001FE012084F8460084F83E001F
:103D900084F83F0084F8400084F8410084F8420031
:103DA00084F8430084F8440084F8450084F83D001A
:103DB000002010BD704790F83D1001291CBF012064
:103DC0007047022180F83D100068A0F18041B1F5F4
:103DD000963118BFB0F1804F09D0A0F18041B1F504
:103DE00080611CBFA0F18041B1F5006104D1816800
:103DF00001F00701062903D0016841F001010160CB
:103E00000020704790F83D1001291CBF0120704729
:103E1000022180F83D100168CA6842F00102CA60C0
:103E20000068A0F18041B1F5963118BFB0F1804F24
:103E300009D0A0F18041B1F580611CBFA0F18041A3
:103E4000B1F5006104D1816801F00701062903D0B2
:103E5000016841F00101016000207047704770B5B2
:103E60000446006801694FF0000511F0020F1CBF05
:103E7000C16811F0020F13D06FF00201016101203F
:103E800020772068806910F0030F204602D0FFF7EA
:103E9000E5FF04E000F099F8204600F0C9F9257725
:103EA0002068016911F0040F1CBFC16811F0040FF4
:103EB00013D06FF00401016102202077206880692F
:103EC00010F4407F204602D0FFF7C8FF04E000F066
:103ED0007CF8204600F0ACF925772068016911F0E4
:103EE000080F1CBFC16811F0080F13D06FF0080154
:103EF0000161042020772068C06910F0030F20467C
:103F000002D0FFF7ABFF04E000F05FF8204600F0BE
:103F10008FF925772068016911F0100F1CBFC16867
:103F200011F0100F13D06FF01001016108202077FD
:103F30002068C06910F4407F204602D0FFF78EFF52
:103F400004E000F042F8204600F072F9257720687E
:103F5000016911F0010F1CBFC16811F0010F05D0FC
:103F60006FF001010161204600F008FA2068016944
:103F700011F0800F1CBFC16811F0800F05D06FF0E9
:103F8000800101612046FFF7EEFD2068016911F014
:103F9000400F1CBFC16811F0400F05D06FF0400109
:103FA0000161204600F0F2F92068016911F0200F4C
:103FB0001ABFC16811F0200F70BD6FF020010161C0
:103FC0002046BDE87040FFF7CFBD704770B490F851
:103FD0003C30012B02BF022070BC7047012380F8E7
:103FE0003C307B4B3AB1042A3ED0082A7CD00C2AC4
:103FF00079D000F0E7B80268D2F820C02CF0010CAC
:10400000C2F820C0D2F820C0546895690E6825F027
:10401000730535438E682CF0020C46EA0C0C9A426C
:104020000DD12CF00803D1F80CC04CEA030323F0A7
:10403000040C24F440734C6923438C691C43546082
:1040400095614B685363C2F820C00268936943F0DE
:10405000080393610268936923F004039361026883
:104060009369096919433BE00268D2F820C02CF03B
:10407000100CC2F820C0D2F820C0546895690E68B0
:1040800025F4E64545EA06258E682CF0200C4CEA1E
:10409000061C9A420FD12CF08003D1F80CC043EAE1
:1040A0000C1323F0400C24F440634C6943EA84036E
:1040B0008C6943EA8404546095614B689363C2F849
:1040C00020C00268936943F40063936102689369B6
:1040D00023F48063936102689369096943EA0121CB
:1040E00091616FE000E03AE00268D2F820C02CF461
:1040F000807CC2F820C0D2F820C05468D5690E6810
:1041000025F0730535438E682CF4007C4CEA062CB0
:104110009A420FD12CF40063D1F80CC043EA0C236F
:1041200023F4806C24F440534C6943EA04138C69F3
:1041300043EA04145460D5614B68D363C2F820C0CD
:104140000268D36943F00803D3610268D36923F09E
:104150000403D3610268D3690969194331E0026835
:10416000D2F820C02CF4805CC2F820C0156AD2F8C6
:1041700004C0D4690E6824F4E64444EA06248E6838
:1041800025F4005545EA06359A4205D12CF48043C2
:10419000D1F814C043EA8C1CC2F804C0D4614B6847
:1041A000136415620268D36943F40063D361026843
:1041B000D36923F48063D3610268D369096943EA50
:1041C0000121D161002180F83C1070BC0846704785
:1041D000002C0140002804BF0120704710B50446A0
:1041E00090F83D0028B9002084F83C00204600F0FB
:1041F0001EF8022084F83D00211D206800F0C4FB59
:10420000012084F8460084F83E0084F83F0084F8DA
:10421000400084F8410084F8420084F8430084F8A8
:10422000440084F8450084F83D00002010BD70472C
:1042300070470000022361B1042935D008293BD022
:1042400090F84120012A08BF80F8413008D00120B1
:10425000704790F83E20012A08BF80F83E30F6D122
:1042600001F01F03026801219940136A8B43136216
:10427000136A194311621A4A0168914203D14B6CC7
:1042800043F400434B640068904218BFB0F1804F84
:104290001AD0A0F18041B1F580611CBFA0F180412E
:1042A000B1F5006110D014E090F83F20012A08BF5A
:1042B00080F83F30CBD1D3E790F84020012A08BFE7
:1042C00080F84030C3D1CBE7816801F007010629AF
:1042D00003D0016841F00101016000207047000037
:1042E000002C014070B4036801F01F0401221E6A13
:1042F0004FF0000C02FA04F526EA05051D621D6A5E
:104300000CFA04FC45EA0C0CC3F820C0036841F227
:10431000111CA3F1804540F24444B5F5963501BF28
:104320001D6A15EA0C0F1D6A254203D15D6C25F448
:1043300000455D6403681D6A15EA0C0F04BFD3F8DD
:1043400020C01CEA040F05D1D3F800C02CF0010CEA
:10435000C3F800C0002908BF80F83E200AD0042915
:1043600008BF80F83F2005D008290CBF80F8402006
:1043700080F84120002070BC7047000002480168AE
:10438000491C01607047000014000020704770470E
:1043900070470000F8B5026804461068D168536998
:1043A00010F00F0F4FF020054FF0000653D003F030
:1043B000010C01F490775CEA070778D010F0010F48
:1043C00018BF11F4807F03D0226C42F001022264F6
:1043D00010F0040F18BF13F0010F03D0226C42F04D
:1043E0000202226410F0020F18BF13F0010F03D075
:1043F000226C42F00402226410F0080F1CBF01F08E
:10440000200252EA0C0203D0226C42F0080222641D
:10441000226C002A08BFF8BD10F0200F1EBF11F05B
:10442000200F204600F05AFB20684169226CC1F33E
:10443000801112F0080F08BF00293DD0C16821F497
:104440009071C1602068416921F001014161206BD8
:1044500001280BD00FE010F0200F18BF11F0200F33
:104460002FD02046BDE8F84000F038BB2068C16876
:1044700021F01001C16084F83E5026632068416934
:1044800011F0400F14D0416921F040014161A06B4F
:1044900070B15C494163A06BFDF77EFE002808BF48
:1044A000F8BDA06B416B01B0BDE8F040084708E0E3
:1044B0002046FFF76DFFF8BD2046FFF769FF266431
:1044C000F8BD236B012B59D110F0100F18BF11F05C
:1044D000100F53D0106850680090506910F0400FD2
:1044E0002ED0A16B086840680004000C1CBFA38D8F
:1044F000834298BFF8BDE0858869202818D0D0682D
:1045000020F48070D0602068416921F00101416190
:104510002068416921F04001416184F83E502663E2
:104520002068C16821F01001C160A06BFDF710FE8A
:10453000A08DE18D401A81B22046FFF728FFF8BD1B
:10454000A08DE18D401A81B2E08D002814BF0029B2
:10455000F8BDD06820F49070D0602068426922F0E5
:104560000102426184F83E5026632068C26822F04E
:104570001002C2602046FFF70AFFF8BD10F0800F5E
:1045800018BF11F0800F2DD094F83D00212818BFDE
:10459000F8BDA068B0F5805F04BF20690028206ADC
:1045A00018D000F101012162216800784860E08C98
:1045B000A0F101000004000CE08418BFF8BD2068E1
:1045C000C16821F08001C1602068C16841F04001EC
:1045D000C160F8BD0088C0F308005060206A801CEC
:1045E0002062E4E710F0400F14BF11F0400FF8BD57
:1045F0002046D16821F04001D16084F83D5000F0A0
:10460000B4F9F8BD9B4B0008002804BF0120704797
:1046100070B5044690F83D00002520B984F83C5060
:10462000204600F022F8242084F83D002068C1686C
:1046300021F40051C160204600F0EAF920680169C8
:1046400021F4904101612068416921F02A01416112
:104650002068C16841F40051C1602564202084F8BD
:104660003D0084F83E00002070BD704790F83E3059
:10467000202B24D1002912BF002A0120704790F876
:104680003C30012B1BD00023036381628285C285ED
:104690000364222180F83E1080F83C300168CA682B
:1046A00042F48072CA6001684A6942F001024A61BC
:1046B0000068C16841F02001C160184670470220BF
:1046C000704700002DE9F04F4B4CA5B060782028D2
:1046D0007ED0FBF7E4FDD4E901128B5C83421CBF62
:1046E0000020A06074D1501CA0600846FBF798FF22
:1046F000A168884278D140480121017000F006FF8E
:104700001230029001F0EAFD00B202F05BFB6FF0A4
:10471000070102F0F8FC394902F02AFA02F0FCF92C
:10472000CDE9000101F0D4FD00B202F04BFB6FF0C7
:10473000030102F0E8FC324C214602F081FA02F05B
:10474000EBF982468B4601F0BDFD00B202F03AFB68
:104750006FF0030102F0D7FC214602F071FA02F07B
:10476000DBF98046894601F0A7FD00B202F02AFB82
:104770006FF0030102F0C7FC214602F061FA02F07B
:10478000CBF906460F4601F0A1FA02F0C5F904463E
:104790000D4601F071FF024602980A90DDE9000122
:1047A000CDE908018DE8F00F16A10BA8FBF798FDE5
:1047B000224D0BAC00224FF400712846FDF715FF87
:1047C0002046FBF72DFF82B24FF47A73214600E0BA
:1047D0000AE01B4800F038F8012251022846FDF794
:1047E00004FF05490020886025B00122BDE8F04F94
:1047F00014491348FFF73ABF740000200000C84175
:1048000000007A444F4B3B25303258683B25332E0D
:104810003166563B25332E3266673B25332E326692
:10482000673B25332E3266673B25332E3166433B8B
:104830007569643A25730D0A000000000008014004
:104840005C020020750000202DE9F05F044690F81E
:104850003D001D4616468846202870D1B8F1000F4D
:1048600012BF002E0120BDE8F09F94F83C00012803
:1048700078D0012084F83C004FF0000BC4F840B021
:10488000212084F83D00FDF7B5FEA6848146E6842C
:10489000A068B0F5805F03BF206900280026464667
:1048A00018BF4FF0000884F83CB0E08C4FF0200AAD
:1048B00010B300BF20684FF08007006837EA00009F
:1048C0000FD000BFB5F1FF3F06D02DB3FDF792FE2C
:1048D000A0EB0901A9421FD82068006837EA000050
:1048E000F0D16EB3216816F8010B4860E08C401ED1
:1048F000E084E08C0028DDD120684026006836EA9C
:1049000000002AD0B5F1FF3F22D02DB1FDF772FE95
:10491000A0EB0900A8421BD92068C16821F4D0711E
:10492000C1602068416921F00101416184F83DA026
:1049300084F83EA084F83CB00320BDE8F09F11E06D
:10494000FFE738F8020B2168C0F308004860CDE7A4
:104950002068006836EA0000D4D184F83DA0002029
:10496000BDE8F09F0220BDE8F09F7047FEE7FEE73C
:10497000704770477047FEF78DB97047014800686F
:10498000FFF76DBA6000002030B40268194BDFF801
:1049900068C01A4C984218BFB0F1804F03D06045F0
:1049A00018BFA04204D14D6822F0700245EA02020D
:1049B000984218BFB0F1804F03D0604518BFA042A5
:1049C00005D1D1F80CC022F440724CEA0202D1F8B1
:1049D00014C022F0800242EA0C0202608A68C262BD
:1049E0000A688262984204BF09690163012141613A
:1049F00030BC7047002C014000040040000800401B
:104A000001480068FFF7C6BC80000020FEE70000F8
:104A100070B5044600680169E26821F44051114311
:104A200001612169A0680843616901432068C26887
:104A300022F4037222F4A0521143C160206841693C
:104A4000A26921F44071114341612068A0F18041C5
:104A5000B1F59C313CD0FEF7BFFB00BF00EBC001BD
:104A600001EB001260681C498000B2FBF0F3A1FB6F
:104A70000353B2FBF0FC5B096FF018056B430CEBC2
:104A8000830C322303EB0C1CA1FB0C5C4FEA5C1C77
:104A90000CF0F005B2FBF0FCA1FB0C6C4FEA5C1CC7
:104AA00005EB0C1CB2FBF0F5B2FBF0F0A1FB002013
:104AB00040096FF01802504305EB800003EB001033
:104AC000A1FB00102168C0F343106044886070BDF2
:104AD000FEF792FBC2E700001F85EB5108B590F886
:104AE0003E1022291CBF022008BD8268B2F5805FFB
:104AF00004BF01690029816A18D0B2F5805F1DD01A
:104B0000002A04BF0269002A18D00268526802F025
:104B10007F020A70816A01F101018162C18DA1F1F8
:104B200001010904090CC1850BD021E0026852681B
:104B3000C2F308020A80816A891CEEE702685268A3
:104B4000E7E70168CA6822F02002CA600168CA6803
:104B500022F48072CA6001684A6922F001024A6147
:104B6000202180F83E10016B012903D0FFF7AAFD38
:104B7000002008BD002101630168CA6822F010020C
:104B8000CA6001680A6812F0100F02D00A6849680A
:104B90000091818DFFF7FBFBEAE710B5406A002129
:104BA000C185C184FFF7F4FB10BD00002DE9F84F6B
:104BB000044600688846DDE90AA501681E461746D6
:104BC00041F4806101602068016841F480710160F6
:104BD000534600224FF001112046009500F0CEF818
:104BE0004FF4007938B12068006810F4807F53D00A
:104BF000C4F8409050E0216808F0FE000861DFF83A
:104C0000C4B02B4652465946204600F0AFF9002862
:104C100055D120684169806900902A465146204656
:104C200000F0FFF840B1206C042848D120680168EA
:104C300041F40071016042E03046FEB201280CD020
:104C40002168380A08612A465146204600F0E9F8F2
:104C500018B1206C0428E9D031E0206806612A46AA
:104C60005146204600F0DDF818B1206C0428DDD054
:104C700025E02068016841F48071016053460022FC
:104C80004FF001112046009500F078F838B1206807
:104C9000006810F4807FABD10320BDE8F88F216855
:104CA00008F0FF0040F0010008612B4652465946CB
:104CB000204600F05BF9002808BFBDE8F88F01200E
:104CC000BDE8F88F020001002DE9F84304460068B2
:104CD0000F46DDE9089601689846154641F4807153
:104CE00001604B4600224FF001112046009600F073
:104CF00045F850B12068006810F4807F1CBF4FF465
:104D0000007020640320BDE8F883216807F0FE00EE
:104D1000086133464A461849204600F027F910BB7F
:104D2000206841698069009032464946204600F07B
:104D300078F840B1206C042815D12068016841F44E
:104D4000007101600FE0EFB2B8F1010F0ED02168E1
:104D5000280A086132464946204600F062F828B128
:104D6000206C0428E9D00120BDE8F88320680761A1
:104D70000020BDE8F8830000020001002DE9F047A3
:104D80000446C1F30748DDF8209000681E46174628
:104D90000D46B8F1010F06D0806925EA0000000435
:104DA000000C1ED005E0406925EA00000004000C5C
:104DB00017D00020B8422FD1B6F1FF3F06D0FDF743
:104DC00019FCA0EB0900B0420DD866B12068B8F11B
:104DD000010F18D0806925EA00000004000C1ED0E5
:104DE00017E00120E6E700202063202184F83D1031
:104DF00084F83E00216C41F02001216484F83C00DD
:104E00000120BDE8F087406925EA00000004000C9D
:104E100005D00020B842CFD00020BDE8F0870120A7
:104E2000F8E72DE9F0410446006817460D46406951
:104E300010F0800F04BF4FF02008002624D1206816
:104E4000406910F4806F11D021686FF48060486170
:104E5000266384F83D8084F83E60206C40F00400B6
:104E6000206484F83C600120BDE8F081B5F1FF3F8B
:104E700005D0FDF7BFFBC01BA84208D83DB1206894
:104E8000406910F0800FDAD00020BDE8F081266381
:104E900084F83D8084F83E60206C40F0200020645F
:104EA00084F83C600120BDE8F08100002DE9F84362
:104EB00098460E460446089DFDF79CFB401BA8EB58
:104EC0000005FDF797FB074627480068C0F3CB3085
:104ED000684300902068806836EA000014D100BF63
:104EE000B8F1FF3F0BD0FDF785FBC01BA8420ED2E7
:104EF0006DB10098002808BF0025401E0090206872
:104F0000806836EA0000EBD00020BDE8F883206816
:104F1000416821F0E00141606068B0F5827F0BD10B
:104F2000A068B0F5004F18BFB0F5806F04D12068BD
:104F3000016821F040010160A06AB0F5005F09D16D
:104F40002068016821F4005101602068016841F483
:104F500000510160012084F85100002084F85000C5
:104F60000320BDE8F8830000640000202DE9F0472D
:104F70000446C1F307480068994615460F46B8F144
:104F8000010F24D0806927EA00000004000C39D00A
:104F900000264FF0200A2068406910F4806F1DD071
:104FA0002068016841F40071016021686FF480603D
:104FB0004861266384F83DA084F83E60206C40F090
:104FC0000400206484F83C600120BDE8F08740695B
:104FD00027EA00000004000CDAD113E0B5F1FF3F2E
:104FE00006D0FDF707FBA0EB0900A8420DD865B17C
:104FF0002068B8F1010F16D0806927EA000000048C
:10500000000CC8D10020BDE8F087266384F83DA0DD
:1050100084F83E60206C40F02000206484F83C60FE
:105020000120BDE8F087406927EA00000004000C79
:10503000B1D1E7E770B52A4886B0C16941F40031C3
:10504000C161C16901F400310491816941F0040139
:1050500081618069012500F0040004900420009023
:105060000220CDE9010503201E4E0390002469466D
:105070003046FDF7C3F90820CDE900046946304603
:105080000294FDF7BBF91949174808604FF4E13065
:10509000C1E901040C20CC60C1E904408C610846E0
:1050A000CC61FFF7B1FA6802CDE9000569463046E8
:1050B0000295FDF7A3F9012251023046FDF795FA5A
:1050C000012200212620FDF72FFE2620FDF71DFEE0
:1050D000012207490548FFF7C9FA06B070BD000074
:1050E0000010024000080140004400405C02002023
:1050F000750000200FB430B5A1B025AA68462499E8
:10510000FBF7DCF80D4D6C4600224FF40071284689
:10511000FDF76BFA2046FBF783FA82B24FF47A73FD
:1051200021460748FFF790FB012251022846FDF770
:105130005CFA21B030BC5DF814FB000000080140AF
:105140005C0200202DE9F04186B000F05DFB4F4885
:1051500000F05EF90026512703968DF80C700223AB
:1051600004AA03A9012000F08DFE9DF811004FF064
:10517000500840F008008DF80C808DF80D000222D8
:1051800003A9012000F01AFE02A800F075FB41F20D
:10519000EC3502A800F082FBA842FAD33C4800F0AC
:1051A0003BF900212C22019168468DF8002018213E
:1051B00000F044FB00212D22019168468DF800206B
:1051C000182100F03BFB00212E22019168468DF84A
:1051D00000200F2100F032FB262000F039FA34467F
:1051E00002A800F05BFBB0F5FA5F1AD2284800F085
:1051F0001BF980B1264800F013F910F0020F10D10E
:10520000224800F0FBF860F30704204800F0F6F8AD
:1052100060F30F2405E002A800F040FBB0F5FA5F50
:10522000E4D3B4B11B49012000F08EF988B11949CB
:10523000012000F01BFA60B1164801F0FBFB40B9F9
:105240001449022000F080F918B11249022000F040
:105250000DFA03968DF80C70022304AA03A901200D
:1052600000F010FE9DF811008DF80C8020F0080071
:105270008DF80D00022203A9012000F09FFD0548D2
:1052800001F0D8FB06B0BDE8F081000091000020DD
:1052900092000020D002002000B583B000210091D0
:1052A000012141EA40008DF80000022301AA69466D
:1052B000012000F0E7FD9DF8050003B000BD08B532
:1052C00040008DF800008DF801100222694601208F
:1052D00000F074FD08BD000070B500250560456054
:1052E000044605810A3001F0A7FB04F1120002A177
:1052F00001F0A7FB657470BD6E756C6C000000005A
:1053000000B585B000214174017800292FD088298B
:105310001ED081724178C17281780173C178417366
:105320004FF0010141742AD1417B0DF1040E90F838
:1053300010C0C37B827B8EE80E10017B0091C37A84
:10534000827A15A100F11200FAF7CAFF05B000BD7C
:10535000417881728178C172C1780173417941735A
:1053600081798173C179C173017A0174D8E705B07D
:10537000124900F112005DF804EB01F062BB427BC0
:10538000017BCDE90012C37A827A0DA11230FAF7BF
:10539000A7FF05B000BD0000253032583A25303255
:1053A000583A253032583A253032583A253032585A
:1053B0003A253032583A253032580000F852000869
:1053C000253032583A253032583A253032583A256D
:1053D0003032580070B500250560456004460581EF
:1053E0000A3001F029FB04F11200034901F029FB06
:1053F0006574204670BD0000F85200080520FFF7D4
:105400004BBFB0210220FFF75ABF0520FFF757BF5F
:10541000B0210220FFF753BF7F210620FFF74FBFC7
:105420000620FFF739BF000010B510210348FDF733
:10543000D7F800280CBF0120002010BD0008014053
:1054400010B52E4B84B02E4C0FCB8DE80F00694663
:105450002046FCF7D3FF002240212046FDF7C5F887
:10546000642000F0DBFA0020009051208DF800004D
:10547000022301AA6946012000F004FD9DF8050001
:1054800050218DF8001020F008008DF80100022254
:105490006946012000F092FC01F0F8F901F0F2F801
:1054A0001848FFF7AEFF12218DF80010C0208DF8CC
:1054B000010002226946012000F080FC1248FFF73B
:1054C000AFFF10F0100FF9D00A2000F0A7FA10215A
:1054D0008DF8001084208DF8010002226946012019
:1054E00000F06CFC0848FFF79BFF10F0100FF9D09C
:1054F00004B00A20BDE8104000F090BA0072000825
:1055000000080140910000209200002000487047F0
:10551000D002002010B50848FFF7DEFEFFF712FEAC
:10552000064C30B1207818B9054906A0FFF7E2FD16
:105530000120207010BD0000D0020020900000204B
:10554000E20200202573000070B50C4605460021DC
:1055500086B00846FFF7B3FE3B48FFF759FF3B48CC
:10556000FFF75AFF2C2100228DF800106846182101
:10557000019200F063F92D2100228DF80010684699
:105580001821019200F05AF92E2100228DF8001006
:1055900068460821019200F051F92C48FFF73CFFC2
:1055A000012D0CBF9321952120262748FFF72DFFC1
:1055B00031462548FFF729FF07210020FFF77FFE2E
:1055C00002A800F050F902A800F046F90A2837D2E4
:1055D0001E48FFF729FF00282DD00A2004A9002229
:1055E0008DF810000846059200F012F910F0040F33
:1055F00026D11648FFF714FF10F0020F20D1012D1D
:1056000014BF052500251048FFF7F8FE60550E4829
:10561000FFF7F4FE2C4460700B48FFF7EFFEA0701C
:105620000948FFF7EBFEE0700748FFF7E7FE20713F
:1056300006B0012070BD02A800F00EF90A28C7D3F9
:1056400006B0002070BD00009100002092000020F4
:1056500010B501460448FFF7D8FE0721BDE8104009
:105660000020FFF72CBE0000910000202DE9F0473C
:105670000C46054600218AB00846FFF720FE5D482B
:10568000FFF7C6FE00212C22079106A88DF81820EE
:10569000192100F0D3F82D2100228DF8181006A84A
:1056A0001921079200F0CAF82E2100228DF8181057
:1056B00006A80821079200F0C1F84F48FFF7ACFE9A
:1056C000012D07BF00209321052095217026255C20
:1056D000204490F8019090F80280C77890F804A0D8
:1056E0004448FFF792FE31464248FFF78EFE2946B6
:1056F0004048FFF78AFE49463E48FFF786FE41468E
:105700003C48FFF782FE39463A48FFF77EFE514695
:105710003848FFF77AFE07210020FFF7D0FD08A8E0
:1057200000F0A1F808A800F097F80A285DD23248E6
:10573000FFF77AFE002853D02F48FFF771FE10F0D4
:10574000020F52D12B48FFF759FE10F0040F1DD164
:1057500000206074207800282BD088281AD0A072EE
:105760006078E072A0782073E07860730120607444
:105770002078882823D0617B207BCDE90001E37A63
:10578000A27A1E4904F11200FAF7AAFD0AB001201C
:10579000BDE8F0876078A072A078E072E0782073AE
:1057A00060796073A079A073E079E073207A207447
:1057B000DCE704F11200124901F043F9E6E7607BEF
:1057C00001AD237CE27BA17B85E80F00207B00906C
:1057D000E37AA27A0B4904F11200FAF781FDD5E7CA
:1057E00008A800F039F80A28A1D30AB00020BDE8C3
:1057F000F08700009100002092000020C0530008B4
:10580000F85200089853000800210846FFF757BDDA
:1058100010B582B00446002000902078012141EAB2
:1058200040008DF80000022301AA6946012000F023
:1058300029FB9DF80500606002B010BD08B541600D
:105840000078022240008DF800008DF801106946B2
:10585000012000F0B3FA08BD10B50446FCF7CAFEFB
:105860002168401A10BD10B50446FCF7C3FE206045
:1058700000206060204610BD0648016821F001014B
:105880000160054A00211160016841F001010160D9
:1058900070470000000800402408004001480068EC
:1058A000704700002408004030B595B0FDF7FAF9C4
:1058B00000240E940225012013940A94049000956C
:1058C00010200194029403940590069408940C947B
:1058D0004FF450100B940D9411940990109412945D
:1058E00007956846FDF7D4FC0F20CDE90A0568024C
:1058F000CDE90C4002210AA80E94FDF789FBA8030C
:105900001290109510A8FDF7EDFA1048816941F04A
:1059100001018161816901F001010091C16941F0DA
:105920008051C161C06900F0805000900848416812
:1059300021F0E06141F00071416000F03DFCFFF7B3
:1059400079FB15B0BDE8304000F072B9001002409C
:105950000000014010B5FEF7FFF8FDF729FA01211C
:105960000020FDF72DFABDE81040FDF775BE0000E0
:105970000C4808B5C16941F00201C161C06901224A
:1059800000F00200009000211D20FDF7CDF91D2040
:10599000FDF7BBF90448FEF7E0F9BDE8084002480E
:1059A000FEF730BA0010024018000020F8B5174C7E
:1059B000E06940F00100E061E069A10400F001004D
:1059C0000090134800254FF6FF76C0E90015C0E9A6
:1059D00002560561FEF7C1F90D48FEF7ECF9E069E2
:1059E00040F00400E061E0690A4900F00400009022
:1059F000094801603C21C0E90115C0E90365FEF7D3
:105A0000ACF9BDE8F8400448FEF7D5B900100240F3
:105A1000D80000200008004020010020FCF710BC46
:105A200010B50C4600F032F82046FFF7F7FF0021D2
:105A30000748FEF757FC00210548FEF74BF90548DB
:105A4000816921F40061816103490020087010BD63
:105A500068010020001002400C00002010B5002159
:105A60000748FEF73FFC00210548FEF733F90548DB
:105A7000816921F40061816103490020087010BD33
:105A800068010020001002400C000020F0B5434ED9
:105A90000546434F307897B0002488B1706885423E
:105AA00004BF17B0F0BD00213E48FEF71BFC0021EB
:105AB0003C48FEF70FF9B86920F40060B861347013
:105AC0007560B86940F40060B861B869364900F49F
:105AD0000060CDE90F041194089409940A940B9482
